:100000000C94E7010C942B020C9446020C942B02E6
:100010000C942B020C942B020C942B020C942B02AC
:100020000C942B020C942B020C941E170C942B0294
:100030000C942B020C942B020C942B020C942B028C
:100040000C942B020C942B020C942B020C942B027C
:100050000C942B0290059005BC05BC0524065C079A
:100060005C075C074206D706E806E8064C075C0713
:100070005C075507FC07FC070E080E0805080E086C
:100080000E080E08FC07FC070A080E080E080A08EE
:10009000480029001E001F0020002100220023002C
:1000A00024002500260027002D002E002A004600EF
:1000B0002B0014001A000800150017001C0018007F
:1000C0000C00120013002F00300031003E00E00051
:1000D00004001600070009000A000B000D000E00C6
:1000E0000F003300340000002D000000E1001D006F
:1000F0001B00060019000500110011001000360059
:1001000037003800351401510000E3000000E20020
:10011000000002512C00000028430000E60000000F
:100120000000E4000000010035003A003B003C0004
:100130003D003E003F0040004100420043004400BB
:1001400045004C00010001004A0052004D004B00E8
:100150000100010001000100010001000100010097
:1001600001000100E000500051004F004E0001006E
:100170000100010001000100010001000000010078
:100180000000E1001D001B00060019000500AA0088
:10019000A900A800AC00AB00AE0001000100000007
:1001A000E300000001000000010001000000010068
:1001B000000001000000000001000000000000003D
:1001C00000000000000000000000490200000000E4
:1001D0000000000000000000000000003A003B00AA
:1001E0003C003D003E003F00400041004200430013
:1001F00044004500000000000000E0001E021F0255
:1002000020022102220224022502260227020000E7
:100210000000000000000000E100000000000000FD
:1002200000000000000035002D022E02000000003A
:10023000000000000000E3000000000000000100DA
:1002400001000000000000000000000000000000AD
:1002500000004A0000000000000000000000000054
:10026000000000000000000000000000000000008E
:100270004D000000000000000000000000004A00E7
:100280004D0000004B004E00000000000000000088
:10029000E00000000000000000000000000050002E
:1002A000510052004F000000000000000000E1007B
:1002B000000000000000000000000000000000003E
:1002C000000000000000000000000000E30000004B
:1002D000E20000000000000000000000000001003B
:1002E000000000000000000009023B00020100A025
:1002F000FA090400000103010100092101010001C4
:1003000022400007058103080001090401000103E0
:1003100000000009210101000122320007058303CA
:1003200008000112011001000000088CA6BDE201C6
:1003300000010200010E0353006500730061006DAF
:10034000006500000010036B0062002D0065006C6A
:10035000006D006F0000000403090405010980A17D
:1003600001850319012AB700150126B7009501750B
:10037000108100C0050C0901A101850419012AA002
:1003800002150126A002950175108100C005010922
:1003900006A101050719E029E71500250195087553
:1003A0000181029501750881030507190029FF15D0
:1003B0000026FF009506750881000508190129052A
:1003C000950575019102950175039103C0001124F3
:1003D0001FBECFE5D8E0DEBFCDBF04B603FE24C00C
:1003E00080918D0290918E02A0918F02B091900227
:1003F0008730904BA740B04BB9F410928D02109209
:100400008E0210928F021092900214BE84B7877FE2
:1004100084BF0FB6F894A89581B5886181BD11BCE1
:100420000FBEE0E0F8E3099510E0A0E6B0E0E4E5F7
:10043000F5E302C005900D92A83EB107D9F722E07E
:10044000A8EEB0E001C01D92AD38B207E1F70E94FE
:10045000FE130C94A81A0C940000A82FB92F80E06A
:1004600090E041E050EA609530E009C02D9182278C
:100470009795879510F084279527305EC8F36F5FB6
:10048000A8F30895EADF8D939D930895CF93CFB796
:10049000CF93DF93C395839BE9F7839B10C0839B26
:1004A0000EC0839B0CC0839B0AC0839B08C0839BA8
:1004B00006C0C0916402C395C09364028EC06F935E
:1004C000C0916302DD27C559DD4F2F9365E5839BFE
:1004D00003C02F916F91E1CF0F931F934F9320E0B3
:1004E00040E15F9300B30C7003FB27F93F9350E0AA
:1004F0003BE039C01C7040642F77012F5F5F1EC046
:10050000406810B31C702F7752501FC0406400B376
:100510002F770C70D1F15F5F00C023C0406210B331
:100520002F771C7091F15F5F00C025C00C70102701
:10053000515012F45D5F0000115027952C3F10B30D
:10054000C8F61C700127015027952C3FC8F642279A
:10055000499300B30C7010274F73115027952C3F0F
:10056000A8F64695469510B31C7079F00127015006
:1005700027952C3F98F66B5A60F3315000B3B0F6D4
:1005800000C010E81ABF00271CC03B503195C31BA8
:10059000D04010E81ABF0881033C21F10B3411F15F
:1005A000209160021981110F1213EDCF4A81441F6F
:1005B000093679F10D3211F0013E29F74F7009F03B
:1005C000042F009369023F915F914F911F910F910A
:1005D0002F916F91CAB7C7FD5DCFDF91CF91CFBF8C
:1005E000CF91189520916902222369F31091670237
:1005F000112309F049C034300AF448C0309367022F
:1006000020936202109163023BE0311B309363023E
:100610003DC0009167020130BCF50AE54F7049F416
:100620003091710034FD33C000937100CDE3D2E00E
:1006300032C0433059F0443091F03091480234FDDB
:1006400026C000934802C9E4D2E025C0309181025F
:1006500034FD1DC000938102C2E8D2E01CC030917D
:10066000540234FD14C000935402C5E5D2E013C017
:10067000052710E000C0000002BB1AC0052710E0EB
:10068000221F1DC010E021C04AE502C032ED432FF9
:10069000C4E1D0E032E011B31C60939A02B311BB05
:1006A0005CE020E865E320FF052702BB279517954E
:1006B0001C3FF0F66695B8F7B1F720FF052702BB9F
:1006C000279517951C3FD0F62795179517FF0527F7
:1006D00000001C3F02BBB0F629913A9519F7037F41
:1006E00010916802110FC651D04002BB11F0109357
:1006F000600210E81ABF086011B3137F402F437FD8
:1007000054E05A95F1F702BB11BB42BB5CCF81E0CC
:10071000089581E008950C94890308950C948D0345
:100720001F93CF93DF9300D000D01F92CDB7DEB7D9
:1007300049835A836B833091EA0089819A81311110
:1007400014C0662359F0222349F00E94A009182FF3
:10075000682F89819A810E94490903C00E94740907
:10076000182F69817A81812F04C00E94A0096981B4
:100770007A810F900F900F900F900F90DF91CF9193
:100780001F910C945210FC01262F408151816281EF
:10079000738184810C94900381E00895CF93DF935B
:1007A000EC0160E00E94C303BE01DF91CF910C9485
:1007B0008E030E9478120E9457040C94B5120C9478
:1007C000B11280E00C94580408950C94E4030E9444
:1007D000EA070E94E5032FEF84E39CE0215080406C
:1007E0009040E1F700C000000C9444170F931F9352
:1007F000CF93DF938C0161E00E94C303EC01B80149
:100800000E948B038823F1F1B801CE010E94E1150B
:100810008823C1F1B801CE010E940B14882391F105
:10082000B801CE010E943D15882361F1F801828153
:10083000882309F1CB358DE5D807C1F050F4C115F7
:10084000FCE5DF0781F0CF3DDC45A9F40E94540FA1
:1008500019C0CC35EDE5DE0761F0CD35DD4559F445
:100860000E94970E08C00E94E7030CC00E94A00ED1
:1008700002C00E94A30EC801DF91CF911F910F917A
:100880000C94870380E0DF91CF911F910F91089521
:100890000C94E4030E943D160E9458040C944804F2
:1008A00008950C94500481E008950C945304089525
:1008B000CF93C82F0E9451048C2F0E945504CF91D2
:1008C0000895CF93DF93CDB7DEB72B970FB6F8948B
:1008D000DEBF0FBECDBF4F83588769877A878B876E
:1008E00061110E94E30D9E012F5F3F4F86E0F901E9
:1008F00011928A95E9F785E0FE013796D9010190BA
:100900000D928A95E1F789819A814C815D81452B11
:1009100031F09F3F31F491E08F3F19F403C091E033
:1009200001C090E090FF09C049815A816B817C81B0
:100930008D819E810E94040D05C0C9010E94CC03D7
:100940008111F2CF2B960FB6F894DEBF0FBECDBF4C
:10095000DF91CF910895FC01808191810E94E2098D
:100960000895CF93882309F448C0C82F8CEF8C0FCB
:10097000813AD0F46C2F80916200909163000E94C4
:100980008C16882349F06C2F80916200909163004F
:100990000E94C4160E94150E6C2F809162009091E7
:1009A00063000E94C2160CC080E28C0F883058F49D
:1009B000C77081E001C0880FCA95EAF70E94C60D92
:1009C000CF910C94150EEBE5EC0FE33040F4F0E022
:1009D000E056FF4F808190E0CF910C945416C85A96
:1009E000C73158F4EC2FF0E0EE0FFF1FEE58FF4F29
:1009F00080819181CF910C946A16CF9108958823BC
:100A000049F1682F8CEF860F813A38F480916200AB
:100A1000909163000E94C4160CC080E2860F88305B
:100A200050F4677081E001C0880F6A95EAF70E9470
:100A3000CC0D0C94150E8BE5860F833020F480E0EE
:100A400090E00C945416685A673120F480E090E0EE
:100A50000C946A1608951F93CF93DF93182FEB0120
:100A60000E94B104209741F08FE99FE00197F1F7D0
:100A700000C000002197F6CF812FDF91CF911F9109
:100A80000C94FF04893319F060E070E002C060E567
:100A900070E00C942B05882321F00E94C60D0C9465
:100AA000150E0895882321F00E94CC0D0C94150E8C
:100AB0000895CF92DF92EF92FF920F931F93CF93FF
:100AC000DF937C01162FC72FFC01D281058102958F
:100AD0000F700E94BC0D8823B9F0DD23A9F08C2F84
:100AE000807F803421F080E2810F883068F080912F
:100AF000240282FD09C082E00E94650E0E94BC0DA6
:100B000091E0D82ED92601C0D12CCC2EC2948FE0F2
:100B1000C8228C2D90E0FC01E65DFF4F0C94541A26
:100B20008C2F807FCF70882311F0C295C07FDD238A
:100B300099F0CC2309F49BC180E2810F883010F03A
:100B4000111104C08C2F0E94C60D03C08C2F0E946F
:100B5000D60D0E94150E8BC1812F0E94FF04CC235D
:100B600009F4AAC180E2810F883038F1112329F1FC
:100B70008C2F0E94DC0D24C08C2F807FCF708032A0
:100B800011F0C295C07F112319F01130A1F13DC0C1
:100B90008091240282FF17C0DD2349F0CC2329F085
:100BA0008C2F0E94C60D0E94150E80E061C180E06E
:100BB0000E94FF04CC2309F47FC18C2F0E94CC0D2E
:100BC0000E94150E79C1DD2371F0002341F0013040
:100BD00031F40E94F60D8C2B0E94FE0D6DC10E9417
:100BE000F60D8C2B1DC0002319F0013009F464C1EF
:100BF0000E940B0E25C0DD2321F0063008F05CC1F9
:100C00000EC0053008F058C11BC0DD2361F0002381
:100C100031F0F701858180FF2AC18F7085838C2F89
:100C20000E944B0549C1002359F0193309F030C126
:100C3000FFEF27EE83E0F15020408040E1F726C12E
:100C40008C2F0E94520538C18C2F86958695837013
:100C500019F0813061F030C1DD2321F0812F9C2F0C
:100C6000937002C080E090E00E9454162DC1DD23F5
:100C700021F0812F9C2F937002C080E090E00E94B1
:100C80006A1622C18C2F837009F045C0D11118C19A
:100C9000412F429546954770440F440F612F6F7066
:100CA000862F90E0A0E0B0E0042E04C0880F991FCA
:100CB000AA1FBB1F0A94D2F714FF10C00FE010E068
:100CC00020E030E004C0000F111F221F331F4A959F
:100CD000D2F7009510952095309503C000E010E004
:100CE0009801C695C695C370BC01CD01602B712BD0
:100CF000822B932BC23049F058F4C13019F00E9476
:100D00005F08DEC00E944D08DBC00E947108D8C099
:100D10000E944B08D5C0DD2319F08C2F817001C0D3
:100D20008695882309F4CCC0412F4295469547709B
:100D3000440F440F612F6F70862F90E0A0E0B0E069
:100D4000042E04C0880F991FAA1FBB1F0A94D2F754
:100D500014FF10C00FE010E020E030E004C0000FEE
:100D6000111F221F331F4A95D2F700951095209529
:100D7000309503C000E010E09801C695C695C37099
:100D8000BC01CD01602B712B822B932BC23049F01B
:100D900058F4C13019F00E94240992C00E9412092F
:100DA0008FC00E9436098CC00E94850889C0CF7010
:100DB000DD2339F08C2F0E94AB08812F0E944B0558
:100DC0007FC0812F0E9452058C2F0E94CC0878C0D2
:100DD000123F21F128F4103F41F0113FC1F043C010
:100DE000133F19F1143F79F03EC0DD2341F0053087
:100DF00008F062C08C2F8F710E94F1085DC0063030
:100E000008F05AC0F7CF8091240282FF18C0DD237A
:100E100039F08C2F8F710E94AB084EC0DD23C9F3CF
:100E20008C2F8F710E94CC0847C0DD2329F08C2FB6
:100E30008F710E94960840C00E9491083DC0DD233A
:100E400049F0CF718C2F0E94AB0863E08C2F0E9479
:100E50004A0E32C081E00E94650E023068F182E0E5
:100E60000E94650E29C0DD2331F0002391F2812F0D
:100E70000E94B10421C0002399F2193349F49FEF75
:100E8000E7EEF3E09150E040F040E1F700C00000F1
:100E9000812F0E94FF0410C04C2F4F70612FC7019B
:100EA0000E944E100E94100A0FC04C2F4F70612FED
:100EB000C7010E94511008C088EF8C0D843020F4C7
:100EC0000E943D160E945804DD20C9F00E94B80D12
:100ED00080FD15C0F70112820E94B20D0E94AB087E
:100EE000C7010E94A0070E94B20DDF91CF911F9110
:100EF0000F91FF90EF90DF90CF900C94CC08DF9192
:100F0000CF911F910F91FF90EF90DF90CF900895B8
:100F10000F931F93CF93DF93EC01688179818A81CE
:100F20000E94ED098C010E9448090E943908B8010D
:100F3000CE010E945905DF91CF911F910F91089525
:100F4000CF93DF93EC01988189812B813C81232B06
:100F500031F08F3F31F481E09F3F19F403C081E00D
:100F600001C080E080FD1DC0CE010E94F60381110A
:100F700010C00E94BC0D8823A1F08A81882389F0CB
:100F80008091240282FD0DC082E0DF91CF910C940C
:100F9000650ECE010E948807CE01DF91CF910C949F
:100FA000CE03DF91CF91089580E090E00E94541627
:100FB00080E090E00E946A160E94E30D0E94F30D0B
:100FC0000C94150E80916200909163000E94C616E9
:100FD0000C94D4070E94D30D0C94E207E92FE295FC
:100FE000EF704E2F50E0FA013297EE30F105B0F479
:100FF000E65CFF4F0C94541A803F91F018F4883E41
:1010000068F40EC0843F51F40BC0883E48F0813F25
:1010100029F406C093FB882780F9089580E008959D
:1010200081E00895FC01808191810E94E2090E9483
:10103000EE070895CF93DF9300D000D01F92CDB775
:10104000DEB70F900F900F900F900F90DF91CF9120
:101050000895CF93DF9300D000D000D0CDB7DEB796
:1010600026960FB6F894DEBF0FBECDBFDF91CF91AD
:101070000895089508950C943A080C943B080E9432
:101080003D08609321017093220180932301909386
:1010900024010C94D4070C943F080F931F930091E4
:1010A0002101109122012091230130912401602B14
:1010B000712B822B932B1F910F910C943F080F9350
:1010C0001F93009121011091220120912301309161
:1010D000240160237123822393231F910F910C9489
:1010E0003F080F931F93009121011091220120913D
:1010F00023013091240160277127822793271F91B4
:101100000F910C943F080C943A080E948308609356
:101110001D0170931E0180931F01909320010C9478
:10112000D40760E070E0CB010C9485080F931F9307
:1011300041E050E060E070E08A019B0104C0000FD4
:10114000111F221F331F8A95D2F7C901B8011F91C1
:101150000F910C9485080F931F9341E050E060E0DD
:1011600070E004C0440F551F661F771F8A95D2F7A1
:1011700080911D0190911E01A0911F01B09120014D
:101180008A019B01082B192B2A2B3B2BC901B80183
:101190001F910F910C9485080F931F9341E050E02D
:1011A00060E070E004C0440F551F661F771F8A95EA
:1011B000D2F7409550956095709580911D01909162
:1011C0001E01A0911F01B09120018A019B010823FB
:1011D00019232A233B23C901B8011F910F910C94B5
:1011E00085080F931F9341E050E060E070E004C079
:1011F000440F551F661F771F8A95D2F780911D01F6
:1012000090911E01A0911F01B09120018A019B01C4
:10121000082719272A273B27C901B8011F910F91D9
:101220000C9485080F931F9300911D0110911E01CE
:1012300020911F0130912001602B712B822B932B69
:101240001F910F910C9485080F931F9300911D011E
:1012500010911E0120911F01309120016023712304
:10126000822393231F910F910C9485080F931F9352
:1012700000911D0110911E0120911F01309120014C
:1012800060277127822793271F910F910C9485085F
:1012900008952FE0929F800D1124E82FE695E695A2
:1012A000E695877051E001C0550F8A95EAF785E011
:1012B000E89FF0011124E551FF4F20E030E070E09D
:1012C0004081CB01022E02C0969587950A94E2F7E1
:1012D0008170819584278523842781932F5F3F4FD9
:1012E0002530310569F708952FE0929F800D112474
:1012F000682F669566956695982F977085E0689F2C
:10130000B001112440E050E080E0FB01E40FF51F44
:10131000E551FF4F208130E0092E02C03695279518
:101320000A94E2F721703327042E01C0220F0A9499
:10133000EAF7822B4F5F5F4F4530510531F7089533
:10134000BF92CF92DF92EF92FF920F931F93CF93B2
:10135000DF938C01C0901D01D0901E01E0901F0111
:10136000F09020018091210190912201A091230110
:10137000B0912401C82AD92AEA2AFB2ACFE1D0E079
:10138000D701C6010C2E04C0B695A79597958795F1
:101390000A94D2F780FD04C0219790F7B12C07C0C2
:1013A000BC2EB8018C2F0E9482110197A9F38B2DBE
:1013B000DF91CF911F910F91FF90EF90DF90CF9031
:1013C000BF900895CF93DF93EC010E94A009BE0166
:1013D0000E948211DF91CF9108951F93CF93DF93E5
:1013E000EB019091EA00992321F0CB010E94E209E0
:1013F00013C0882349F0CB010E94A009182F682F41
:10140000CE010E94490904C0CB010E947409182F23
:10141000BE01812F0E948211DF91CF911F9108950B
:10142000EF92FF920F931F93CF93DF938C01892B41
:1014300009F46CC0F12CEE24E394E8012196F80144
:101440008491843740F4843008F051C0813081F0B9
:10145000823019F15BC0853709F444C0A8F19CE7DC
:10146000980F903708F052C08F770E94FF0441C058
:101470000E5F1F4FFE01849190E2980F983050F458
:101480008770FE2D01C0FF0F8A95EAF78F2F0E940B
:10149000E60D14C00E94B1042DC00E5F1F4FFE0167
:1014A000849190E2980F983060F48770FE2D01C00F
:1014B000FF0F8A95EAF78F2F0E94EC0D0E94150E00
:1014C00019C00E94FF0416C00E5F1F4FFE01C49199
:1014D000CC2381F08FE99FE00197F1F700C0000075
:1014E000C150F6CF0E5F1F4FFE01F49003C00E9463
:1014F000B1048E018F2D882309F49FCFEFE9FFE01F
:101500003197F1F700C000008150F5CFDF91CF9106
:101510001F910F91FF90EF9008951F93CF93DF934A
:10152000C091250116E080912601C81799F0D0E0FE
:101530001C9FF0011D9FF00D1124E95DFE4F4081BD
:10154000518162817381848195810E94290821964D
:10155000C770E9CFDF91CF911F9108954091570156
:10156000509158016091590170915A0180915B012D
:1015700090915C010C942908EF92FF920F931F93B6
:10158000CF93DF9380915C0182958F7009F065C0E5
:1015900080915901882309F460C080912501F09061
:1015A0002601109157010091580160915A017091E4
:1015B0005B0191E01F3F09F090E0C0916000D09185
:1015C0006100292F96E0E92E8F1509F446C06115B8
:1015D000710521F00F3F21F030E003C031E001C080
:1015E000322F90E030FD36C0E89EF001E99EF00D0C
:1015F0001124DF01A95DBE4F11963C911197301364
:1016000029C03C91311326C012963C91129731119A
:1016100021C013964D915C911497461B570B4C17A4
:101620005D07C0F480915C018F70806180935C01E4
:10163000E45DFE4F80818F708061808387E591E05B
:101640000E94A007DF91CF911F910F91FF90EF9023
:101650000C948D0A01968770B7CFDF91CF911F91BF
:101660000F91FF90EF9008959F92AF92BF92CF920B
:10167000DF92EF92FF920F931F93CF93DF93CDB73B
:10168000DEB761970FB6F894DEBF0FBECDBF8C01F9
:1016900085E0F801DE011D9601900D928A95E1F733
:1016A000D8011296EC9090915701E0915801209149
:1016B0005A0130915B012115310531F0EF3F31F4D2
:1016C00081E09F3F19F403C081E001C080E0B82FA2
:1016D000B1709B2E80FD47C1D8014C9111965C9151
:1016E00011971396AD90BC90149787E5C82E81E0B2
:1016F000D82EF0905901B501621B730B2091600048
:1017000030916100FF2009F4D9C080915C0162171B
:10171000730708F095C0282F207F09F052C05E1390
:1017200013C0491311C0FE2CE1100EC08F708061F0
:1017300080935C010E94AE0AC6010E94A0078091BE
:101740005C01F80185834DC1AB2831F05F3F31F476
:1017500081E04F3F19F403C081E001C080E080FDCB
:1017600003C081E08E2502C080E090E0F82FF17088
:10177000FF2E80FF1CC0809125012091260136E0BC
:10178000821709F40BC190E0389FF001399FF00DEA
:101790001124E95DFE4F6181561306C06081461336
:1017A00003C06281E61203C001968770E9CFFE2C68
:1017B000EE2009F416C180915C01816080935C0188
:1017C00054C05E1306C0491304C0E11002C0F80102
:1017D00099C0C8010E941208882361F1EE2051F1DE
:1017E00020915C01822F82958F7090E0029774F0B7
:1017F000809157019091580198878F831986BB86F5
:10180000AA862C87CE0107960E94A00786E0F801E1
:10181000A7E5B1E001900D928A95E1F70E94BC0A1C
:101820000E94AE0A0AC05E1711F1C8010E94120898
:1018300081112CC0C8010E94A007FF24F394D1C0DD
:10184000282F207F81F77A2DB98AA88A6E2D898961
:101850000E941A0887E591E00E94A00786E0D60161
:101860001D928A95E9F70E94AE0AF12CBAC049137D
:10187000DCCFE110DACFF8018583C8010E94A00710
:1018800086E0D6011D928A95E9F7ABC0EE2091F271
:1018900020915C01822F82958F7090E002970CF46A
:1018A000B5CF80915701909158019A8389831B820B
:1018B000BD82AC822E83CE010196A6CF621773073C
:1018C00008F044C0FE2CEE2009F4B4CF5E1330C003
:1018D00049132EC020915C0120FD21C0822F8295EA
:1018E0008F70482F50E041155105C9F0F80125834C
:1018F0004F30510541F08F5F982F9295907F822F46
:101900008F70892B8583C8010E94A00786E0F801AB
:10191000A7E5B1E001900D928A95E1F73CC086E021
:10192000F801A7E5B1E001900D928A95E1F759C061
:10193000C8010E941208811169CF80915C01816009
:1019400080935C01C8010E94A0074BC07A2DB98A20
:10195000A88A6E2D89890E941A0886E0D6011D92F8
:101960008A95E9F718C0EE2009F464CFC8010E94F7
:101970001208F82E882309F45DCF86E0F801A7E568
:10198000B1E001900D928A95E1F787E591E00E9420
:10199000AB040E94BC0A0E94AE0A23C04D875E873A
:1019A0008D859E850E94E209292F22952F70223075
:1019B00028F49F7039F0811105C00BC0243028F441
:1019C0009F7049F4805E883020F0C8010E94A00713
:1019D0009F2CF92C06C0D80115969C91907F91F709
:1019E000F8CF8F2D61960FB6F894DEBF0FBECDBF36
:1019F000DF91CF911F910F91FF90EF90DF90CF90EB
:101A0000BF90AF909F9008951F93CF93DF93CDB772
:101A1000DEB72C970FB6F894DEBF0FBECDBF4F8355
:101A2000588769877A878B879C87CE0107960E94A3
:101A3000340B8823D1F09F8188852A853B85232B11
:101A400031F08F3F31F481E09F3F19F403C081E012
:101A500001C080E080FD47C04F81588569857A8547
:101A60008B859C850E9429083EC086E0FE01379642
:101A7000DE01119601900D928A95E1F7FF81E885CC
:101A80006A857B856115710531F0EF3F31F481E0A6
:101A9000FF3F19F403C081E001C080E080FD23C056
:101AA0002091260130E0C901019687709927409165
:101AB000250150E084179507F1F1F983EA837D83CE
:101AC0006C8396E0929FD001939FB00D1124A95D85
:101AD000BE4FFE01319601900D929A95E1F78093E9
:101AE00026010E948D0A16E0809125019091260121
:101AF000891771F1189FC0011124895D9E4F0E94C2
:101B0000340B882329F1E09125011E9FF001112457
:101B1000E95DFE4F408151816281738184819581AD
:101B20000E9429088091250190E0019687709927ED
:101B300080932501D9CF0E94EA07109226011092C6
:101B40002501E7E5F1E086E0DF011D928A95E9F7DE
:101B50002C960FB6F894DEBF0FBECDBFDF91CF91AC
:101B60001F91089580915D018595859585950895CE
:101B700080915D018770089590915D01977081E07B
:101B800009F480E0089580916901089590916901B8
:101B9000892B80936901089580959091690189232B
:101BA00080936901089510926901089590916801E8
:101BB000892B80936801089580959091680189230D
:101BC00080936801089510926801089590916701CB
:101BD000892B8093670108958095909167018923EF
:101BE00080936701089510926701089580915E01C6
:101BF000089508950C94F90D0C94FA0D9091240217
:101C000092FD08C090915E01981721F080935E01CB
:101C10000C94FC0D089580915E01882329F01092A8
:101C20005E0180E00C94FC0D0895E0916200F0915B
:101C30006300809169018083E0916200F09163000C
:101C4000908180916801892B8083E0916200F091FE
:101C50006300908180916701892B808380915E0170
:101C6000882381F0E0916200F09163009081892BDC
:101C7000808380916200909163000E9480168111A0
:101C80000E940B0E80916200909163000C944916A3
:101C90000C94F90D9091240292FD10C098E0899F58
:101CA00090011124262B20935D010E94AB088091A6
:101CB0005D018595859585950C94480E0C94AB082F
:101CC00010925D0180E00C94480E20915D0180959A
:101CD000822380935D01982F977099F430E0482F0C
:101CE000082E000C550B2417350759F0909124024B
:101CF00092FD07C08595859585950E94CC080C942A
:101D0000600E08959091240292FB222720F9281753
:101D100069F080FB92F990932402809123029091C4
:101D200024020E94D00E82E00C94650E08958091EA
:101D3000240282FB882780F991E089270C94820E87
:101D400081E00C94820E80E00C94820E6FEF7FEFA6
:101D500080E090E00C94921A80E090E00E946F1A6C
:101D600021E0893E9E4F09F020E0822F089582E015
:101D700090E00C94671A83E090E00C94671ACF937C
:101D800084E090E00E94671AC82F82E290E00E94EF
:101D9000671A2C2F30E0A901582BCA01CF91089562
:101DA000CF93C92F682F84E090E00E94751A6C2FA2
:101DB00082E290E0CF910C94751AAB01BC018FE0E8
:101DC00090E00C94861AAB01BC0183E190E00C9486
:101DD000861A60E070E0CB010C94E30E60E070E0E6
:101DE000CB010E94DD0E0C94E90E69EE7EEF80E0DF
:101DF00090E00E94921A60E082E090E00E94751AE2
:101E000060E083E090E00E94751A10922101109228
:101E10002201109223011092240160E084E090E0FE
:101E20000E94751A60E082E290E00E94751A60E0FC
:101E300085E090E00E94751A60E086E090E00E94E4
:101E4000751A6FEF87E090E00E94751A40E050E04D
:101E5000BA0188E090E00E94861A60E08DE090E090
:101E60000E94751A40E050E0BA0188E190E00E94BB
:101E7000861A60E087E190E00E94751A40E050E029
:101E8000BA018CE190E00E94861A60E070E080E286
:101E900090E00E94921A40E050E0BA0188E190E0A0
:101EA0000E94861A0C94EE0E0C94F50E682F8EE0AC
:101EB00090E00C94751A0E94031760937901709357
:101EC0007A0180937B0190937C01609375017093FC
:101ED00076018093770190937801089584B78068A4
:101EE00084BF84B7806884BF089581E008950C940E
:101EF000750F08950C94790F0C94790F0C947C0F46
:101F00000C94790F0C94800F0C94790F0E946E0F33
:101F10008EE592E10E9433160E94840F0C94820F8A
:101F20000E947A0F0C94790F0E94F0160E945D13A4
:101F30000C947E0F6F927F928F929F92AF92BF927E
:101F4000CF92DF92EF92FF920F931F93CF93DF9385
:101F5000CDB7DEB72A970FB6F894DEBF0FBECDBF60
:101F60000E94721381110E945B0F3BE6832E31E0C9
:101F7000932E00E010E0C02E802F0E949C125C0186
:101F8000F401619071904F01682679266114710403
:101F9000B1F40F5F1F4F0530110569F78FEF89838B
:101FA0008A831B820E94F7168160782F9D838C8321
:101FB00049815A816B818D810E9461043AC0809170
:101FC0007D0181FD0E94A512D12CEE24E394F12C19
:101FD000C3018E219F21892B29F10E94770F88232D
:101FE000A9F0DE82CF82AE20BF2081E0AB2809F4C9
:101FF00080E088870E94F7168160782F9A8789870A
:102000004E815F8168858A850E946104000F111FDF
:10201000F801E559FE4F80819181E826F926F18289
:10202000E08207C0D394EE0CFF1CFFE0DF12D0CF9C
:10203000B0CF0E943D1690916A018917D1F00E949D
:102040003D1680936A012A960FB6F894DEBF0FBE44
:10205000CDBFDF91CF911F910F91FF90EF90DF9057
:10206000CF90BF90AF909F908F907F906F900C9487
:1020700058042A960FB6F894DEBF0FBECDBFDF918D
:10208000CF911F910F91FF90EF90DF90CF90BF9075
:10209000AF909F908F907F906F90089580E090E038
:1020A000089508952BE4829FC0011124FC012FE0C4
:1020B000729FE00DF11D1124E60FF11DEE0FFF1FC1
:1020C000E057FF4F859194910895880F991FFC0167
:1020D000E851FD4F859194910895CF93DF930E942D
:1020E0008711EC01811520E5920708F041C08115A8
:1020F00040E4940708F0CBC0803E910520F5803C79
:10210000910508F0B8C0883A910570F4853A9105B8
:1021100008F0A8C08130910509F4A1C008F4EBC013
:10212000049708F0EBC0E7C08F3B910508F0E3C0CF
:10213000885AC82FD0E0CC0FDD1FCD55DF4F8881E6
:1021400099819464DCC0811550E2950750F4C11563
:1021500081E0D80708F0D2C0C83ED10508F4CEC04F
:10216000CAC0811520E3920708F08AC09F7085C01D
:10217000811545E5940708F046C0811554E595079B
:1021800008F09DC0C11582E5D80718F5C11521E5F5
:10219000D20708F07FC0CE01F4E096958795FA95B6
:1021A000E1F7282F23703C2F337081E090E002C0CC
:1021B000880F991F3A95E2F79C68922B2C2F2F706D
:1021C0002695269540E2249F90011124822B932B83
:1021D00096C09E01237033279C2F96959695C11526
:1021E000D34508F05CC041E050E002C0440F551FE9
:1021F0002A95E2F780E2989F90011124CA01822B70
:10220000932B9C687CC0811559E5950798F4C115FE
:1022100088E5D80708F058C0C11526E5D20708F0B0
:102220006AC08C2F0E941B128F7190E0982F882714
:10223000906265C081154AE5940708F44AC090563B
:102240008115904208F057C08D2F8F710E941B128C
:102250009E01332730628F71A901582B4AC081E05B
:1022600090E04DC0855AC82FD0E0CF52DF4F888113
:1022700090E0906444C0805C91090E9465103FC06A
:102280009927D3FF02C0986C3AC0906C38C09F70F9
:10229000906A35C09C2F8827816F906A30C041E0DA
:1022A00050E002C0440F551F2A95E2F780E2989F44
:1022B00090011124CA01822B932B9A6820C0982F79
:1022C0008827846F906A1BC09C2F8827806F906A34
:1022D00016C08F700E941B129E0194E036952795C0
:1022E0009A95E1F72F7030E0322F22273069A9014B
:1022F000482BCA0104C080E090E001C0CE01DF910C
:10230000CF9108950E9452100E946D100895823856
:10231000910569F1B0F48133910509F46DC048F479
:102320008932910509F463C08A32910509F469C0C4
:1023300008958533910509F455C089339105B9F0A5
:102340000895833E910569F138F4803E9105B1F01E
:10235000823E910509F10895863E9105A9F1873ED7
:102360009105B9F1843E910509F064C023C0209124
:10237000230220FD4FC021FD4DC00895809123020E
:1023800080FD44C08091240280FF44C080912302DC
:1023900084FD42C083EE4DC08091230282FF38C08D
:1023A000F5CF8091230282FD33C08091240280FD0D
:1023B00031C0ECCF8091240281FF32C08091230292
:1023C00084FD2AC087EE35C08091230283FF26C09A
:1023D000F5CF8091230283FD21C08091240281FDED
:1023E0001FC0ECCF8091230285FD1CC01DC08091D1
:1023F000230285FD19C016C08091230286FD16C0F8
:1024000017C08091230286FD13C010C089E311C05C
:1024100082EE0FC080EE0DC080E00BC086EE09C0DA
:1024200084EE07C089E205C085E303C08AE201C0EB
:1024300081E390E008959091230292FF0DC0282F30
:102440002871283019F4877F846006C0282F2471F2
:10245000243011F48B7F886093FF0DC0282F2871E2
:10246000283119F4877E846106C0282F2471243115
:1024700011F48B7E88612091240220FF0DC0382F3B
:102480003871383019F4877F816006C0382F317178
:10249000313011F48E7F886021FF0DC0282F287104
:1024A000283119F4877E816106C0282F21712131DE
:1024B00011F48E7E886194FD877E089580E00895F2
:1024C0000C94A60E0E9472138FE39CE90197F1F71A
:1024D00000C000000E94721380E00E949C1281FFE5
:1024E00004C00E9460120C94441708950C94621268
:1024F0000E94AC0E811102C00E94540F0E94B70EC0
:1025000080937D010E94BF0E90932402809323024A
:102510000E9476120E94BB0E682F70E080E090E06F
:102520000E944B0860911D0170911E0180911F0156
:10253000909120010C948308E82FF0E0EE0FFF1F2C
:10254000E15DFD4F808191810895089580EA8A952B
:10255000F1F7089500C008950C94A61208950C9404
:10256000AE120C94AF120C94AE120C94B312F894F9
:10257000E82FE295EF70F0E031A9282F2F7081E06D
:1025800090E001C0880F2A95EAF7982F9095932341
:1025900091AB92A9892B82AB789408950F931F93E6
:1025A000CF93DF93C3EED0E089918F3F11F00E946B
:1025B000B71280E0C83ED807B9F7C4EDD0E003EE0B
:1025C00010E089918F3F11F00E94B7120C171D0780
:1025D000C1F7DF91CF911F910F910895BF92CF92D4
:1025E000DF92EF92FF920F931F93CF93DF938C01B3
:1025F000C62FD0E0CE018D519F4F6C01FC01908120
:102600009F3F09F450C0B62EF894E92FE295EF7081
:10261000F0E081A99F7021E030E001C0220F9A957F
:10262000EAF7822B81AB82A92095282322AB7894EC
:102630000E94AA12E4EDF0E043EE50E021E030E029
:10264000E12CF12C61916F3F89F0A62FA295AF701C
:10265000B0E0D0968C9190E06F7002C09595879510
:102660006A95E2F780FD02C0C90102C080E090E0F7
:10267000E82AF92A220F331F4E175F0719F7F601D0
:1026800080818F3F11F00E94B71261E0E114F104E4
:1026900009F460E08B2D0E94AC12CC0FDD1FC00F3F
:1026A000D11FF982E882DF91CF911F910F91FF90A6
:1026B000EF90DF90CF90BF9008950E94CE128AE0F5
:1026C000EFE2F2E0DF01982F1D929A95E9F7E5E23B
:1026D000F2E0DF011D928A95E9F785E00E94BD13C3
:1026E0000C94D903FF920F931F93CF93DF93CDB731
:1026F000DEB72A970FB6F894DEBF0FBECDBF8E01AE
:102700000F5F1F4F8AE0F80111928A95E9F7F12CCB
:102710006F2DC8010E94EE12F394F5E0FF12F8CF7E
:102720004AE050E0B80185E292E00E945A1AFF2484
:10273000F394009709F4F12C892B41F08AE0F80119
:10274000A5E2B2E001900D928A95E1F72F2D45E0C8
:102750006FE272E085E292E00E94BE130E94DF0306
:102760008F2D2A960FB6F894DEBF0FBECDBFDF9136
:10277000CF911F910F91FF9008950895FF920F93AD
:102780001F93CF93DF93F82E092F162FD72FC42F27
:10279000222349F081E0809380010E94F7169093F4
:1027A0007F0180937E01809180018823D9F0809100
:1027B0007E0190917F010E940F17059798F0EF2DF1
:1027C000F02FA12FBD2F80E090E04C2F50E0841718
:1027D000950734F4219131912D933D930196F7CFD4
:1027E00010928001DF91CF911F910F91FF9008957A
:1027F0000E945E170E94940F0C946F170E94CD16D2
:102800000E9457170E94860F0E94F8130E947D179E
:102810000E94900FFBCFCF93DF93EC01FB018281ED
:10282000882309F426C1C430FDE5DF0760F4CB3FFF
:102830009CE5D90768F49E0122503C4524313105BE
:1028400008F018C105C0C236EDE5DE0709F012C177
:102850000E94BF0E9093240280932302C031FCE5B6
:10286000DF0709F4CAC008F041C0C8309CE5D907A9
:1028700009F4A4C0F0F4C430FCE5DF0709F48CC00F
:1028800068F4C2309CE5D90709F482C0C330DC4546
:1028900009F0E5C0809123028260DFC0C630FCE50C
:1028A000DF0709F483C008F085C0809123028860A7
:1028B000D4C0CC309CE5D90709F490C068F4CA3084
:1028C000FCE5DF0709F47EC008F084C00E94EA0737
:1028D000809123028068C1C0CE309CE5D90709F4FD
:1028E00081C008F086C08091230294C0CD3FFCE5F2
:1028F000DF0709F47BC038F5C4319CE5D90709F43A
:102900009AC058F4C231FCE5DF0709F47AC008F038
:102910007EC0809123028F7BA0C0CB3F9CE5D9076E
:10292000F1F108F03FC0C531DC4509F098C0809155
:10293000230282FB222720F991E0922790FB82F963
:1029400090FB83F98AC0C1308DE5D80709F467C0D0
:1029500050F480912402CF3FECE5DE07C1F108F08E
:102960005BC08D7F65C0C3308DE5D80709F471C0A9
:1029700008F46DC0C236DD4509F071C080912302B4
:1029800084FB222720F991E0922790FB84F965C00F
:1029900080912302816061C08091230216C08091E2
:1029A000240216C080912402826042C080912302DA
:1029B000806153C08091230280624FC080912302C6
:1029C00080644BC0809123028860846046C082602E
:1029D00081602EC0809123028E7F3FC080912302B0
:1029E0008D7F3BC080912302877F37C08091240276
:1029F00014C0809123028F7E30C0809123028F7D8E
:102A00002CC00E94EA07809123028F7726C0809114
:102A10002302877F8B7F21C08D7F8E7F09C08091AD
:102A20002402982F909591708E7F892B90FB81F9CD
:102A30008093240214C00E94EA078091230287FB3E
:102A4000222720F991E0922790FB87F906C081E0C8
:102A500001C080E00E94560F02C080932302809143
:102A60002302909124020E94D00E0E94EA0780E087
:102A700001C081E0DF91CF910895CF93DF9386313C
:102A80009C4541F5EB010E94C30D982F8A8120914E
:102A9000620030916300882379F09A7A81E009F42A
:102AA00080E080938101911102C069E201C065E379
:102AB000C9010E94C2160AC080918101811102C021
:102AC00069E201C065E3C9010E94C4160E94150EA7
:102AD00080E001C081E0DF91CF9108950F931F93B3
:102AE000CF93DF93C42FD22FFC0182818823C9F0BA
:102AF000409384010E94F716909383018093820192
:102B000080E28C0F883008F057C0C77081E001C0A8
:102B1000880FCA95EAF7DF91CF911F910F910C941E
:102B20004B0580918401481330C0809182019091BF
:102B300083010E940F17883C910538F510E21D0FA4
:102B4000CD17B9F080E28C0F883040F4C77081E077
:102B500001C0880FCA95EAF70E945205183028F57F
:102B600081E09D2F977001C0880F9A95EAF70E9427
:102B70004B05802F0E9442051830F0F4D77081E099
:102B800001C0880FDA95EAF70AC080E28C0F88301E
:102B900098F4C77081E001C0880FCA95EAF7DF9109
:102BA000CF911F910F910C945205802FDF91CF91FF
:102BB0001F910F910C944205DF91CF911F910F91BE
:102BC00008950F939C01CB01243F4CE5340731F16C
:102BD00088F4293DFCE53F07D9F02A3D4CE5340750
:102BE00079F1283D3C45A9F506E221EE41EE68ED7C
:102BF0007CE52BC0263FFCE53F07E1F0A8F0273F2E
:102C00003C4539F507E225EE46EE67EF7CE51DC051
:102C100007E225EE45EE69ED7CE517C006E221EE00
:102C200040EE64EF7CE511C007E225EE44EE65EF6F
:102C30007CE50BC006E221EE42EE66EF7CE505C0C6
:102C400008E221E045EE6AED7CE50E946E1580E029
:102C500008C0FC018281882319F01092840101C010
:102C600081E00F9108959093E9008093E800089522
:102C700090938A01809389010895E0918901F091F0
:102C80008A01309721F00190F081E02D099480E0D5
:102C90000895E0918901F0918A01309721F0028036
:102CA000F381E02D099408952091870130918801E6
:102CB0002817390771F09093880180938701E0917C
:102CC0008901F0918A01309721F00680F781E02D8B
:102CD00009940895209185013091860128173907BC
:102CE00071F09093860180938501E0918901F091C4
:102CF0008A01309721F00084F185E02D0994089530
:102D0000FC01329697E080E0915029F02191222336
:102D1000D9F38F5FF9CF0895662349F0FC0132960D
:102D200008962191621729F0E817F907D1F780E09A
:102D3000089581E008959C01FC0132969FEF80E0A8
:102D40004191461789F09F3F19F4411101C0982F16
:102D50008F5F8630A9F79F3F39F0F901E90FF11D28
:102D600097FDFA956283089508959C012A5F3F4F6D
:102D7000FC014281461301C012820196821793071B
:102D8000B9F708950C949B160C94B516029626E09C
:102D9000FC0111922A95E9F70895089580918D011B
:102DA00081110C94E103089508950C94D416CF93E7
:102DB0000E94D5160E9472130E94D416C0E08C2F78
:102DC0000E949C12892B29F4CF5FC530C1F780E0A7
:102DD00001C081E0CF9108950E94EA070C944A0453
:102DE0008BE083BF8AEF8CBF82E089BF08952FB745
:102DF000F8948091390290913A02A0913B02B091EF
:102E00003C022FBF08952FB7F8946091390270915A
:102E10003A0280913B0290913C022FBF08959C01A1
:102E20004FB7F8948091390290913A02A0913B02F9
:102E3000B0913C024FBF821B930B089578941F9270
:102E40000F920FB60F9211248F939F93AF93BF935E
:102E50008091390290913A02A0913B02B0913C02DC
:102E60000196A11DB11D8093390290933A02A0935F
:102E70003B02B0933C02BF91AF919F918F910F9015
:102E80000FBE0F901F90189598E088E10FB6F89448
:102E9000A89581BD0FBE91BDA895F894D8E0CEE568
:102EA00028E3299320E0299314BEFFCF08950E94C0
:102EB000F71690938C0180938B0108950E94391A24
:102EC0008B9A80E0815041F0A895EFE9FFE03197BF
:102ED000F1F700C00000F6CF8B98789408950E9417
:102EE0005C180E9438162FEF80E792E02150804056
:102EF0009040E1F700C000000895809164028823AB
:102F000089F0109264020E94F71690938C018093CE
:102F10008B0180918D018823D1F110928D010E9447
:102F2000EC1611C080918D01811111C080918B012F
:102F300090918C010E940F17069728F081E08093F2
:102F40008D010E94CE1680918D01882301F10E948F
:102F5000CE160E94D716882339F1F89421B3939A9C
:102F6000822F8C6081BB92B38CE0982792BB3FE7A5
:102F700048E391E0315040409040E1F700C000004C
:102F800092B3892782BB21BB9398789408950E94BD
:102F9000421980916A02882329F08091480284FDB9
:102FA0000E949A0F0C9403180895809122020895AC
:102FB000089590919301981307C020919101309149
:102FC000920126173707A9F080939301709392011D
:102FD0006093910180938E017093900160938F01B3
:102FE0008091810284FF05C063E08EE891E00C943B
:102FF0003E190895BC0184E00C94D917BC0183E00C
:103000000C94D9170895CF93DF93CAE0D0E0809154
:10301000480284FF18C080919F019091A0019817E9
:10302000E1F028E0829FC001112468E08F559E4F97
:103030000E943A1980919F0190E001968F70992724
:1030400080939F010AC00E9442198FE99FE0019777
:10305000F1F700C000002197D1F6DF91CF910895DC
:10306000CF93DF93EC01A091A001B0E0CD010196D8
:103070008F70992720919F01281779F093E0AA0F6C
:10308000BB1F9A95E1F7AF55BE4F98E0FE01019046
:103090000D929A95E1F78093A0010E9442190E9437
:1030A000031888E0FE01A7E9B1E001900D928A952E
:1030B000E1F7DF91CF91089584E690E00895FC0157
:1030C000808180768032A1F58181813061F48481B4
:1030D0009581892B69F587E991E090936602809349
:1030E000650288E00895823041F481E292E0909395
:1030F00066028093650281E008958A3021F483811D
:103100008093210215C0893099F4828193818115C1
:10311000924081F484819581892B61F481E08093D0
:10312000960186819781909395018093940102C0C6
:1031300080E008958FEF08952091940130919501DA
:10314000232B71F020919601213051F4FC018081F4
:1031500080932202109295011092940181E00895CB
:103160008FEF08950895FC0193819330D9F068F4AE
:10317000913081F0923009F059C088EE92E090933E
:103180006602809365028BE30895913249F1923291
:10319000B9F14CC083E293E090936602809365029C
:1031A00082E108958281813099F050F08230F1F50A
:1031B00085E393E090936602809365028EE0089524
:1031C00087E593E0909366028093650284E008951A
:1031D00085E493E0909366028093650280E1089510
:1031E0008281882329F0813009F583E193E002C0D0
:1031F0008AEF92E0909366028093650289E00895D9
:1032000084819581009751F0019781F48BE593E0DB
:10321000909366028093650282E308958DE893E0BF
:10322000909366028093650280E4089580E008959B
:103230001F93CF93DF93162FEA01288124FF05C047
:10324000398128E82327298302C02AE52883212FF2
:10325000FC01CE010296DC0131913D932150121602
:10326000DCF3612F0E9442021C5F1883DF91CF9133
:103270001F91089548E452E00C94181941E852E077
:103280000C941819CF93DF9360916702635067FD28
:1032900093C080916302CCE0D0E0C81BD109C5592E
:1032A000DD4F80916202803120F4CE010E94B2187D
:1032B00081C08D3209F06EC0683009F07BC083ECAC
:1032C00080933D028AE580937100109261028881AB
:1032D000807621F0CE010E945F1849C09A81109239
:1032E00046028981811106C01092470226E432E02D
:1032F00082E038C0853019F49093680230C086307F
:10330000A1F48B81813041F0823031F0833021F0A3
:10331000813211F0823221F4CE010E94B31801C033
:1033200080E090E49093610222C0883089F0893077
:1033300019F490936A0213C08A3069F08B3079F4E3
:103340008BE480934902809382028093550207C0E8
:103350002AE632E002C026E432E081E003C026E43F
:1033600032E080E0309366022093650209C08F3F0F
:1033700039F4988197FD8E8190E89093610207C09F
:103380009F81911104C09E81981708F4892F809322
:10339000700010C08091610287FF0CC0CE010E94B6
:1033A0009C188F3F21F48EE18093710003C081113E
:1033B00010927000109267028091710084FF4CC0DF
:1033C000809170008F3F09F447C0C82F893008F002
:1033D000C8E08C1B8093700090913D0288E889279B
:1033E00080933D02CC2359F1809165029091660251
:1033F0002091610226FF12C0ADE3B2E02C2FAC0198
:103400004D535240FA01EA0FFB1FE4911196EC93E1
:103410001197215011962111F5CF08C0EEE3F2E08B
:10342000DC012C2F3D9131932150E1F701962FEFD4
:103430002C0F820F911D90936602809365026C2F72
:103440008EE392E00E944202CC5FCC3019F08FEF05
:1034500080937000C093710084E190B39C7031F44C
:103460008150D9F71092680210926002DF91CF91DB
:103470000895CF93DF9385B7886085BF8BB7806849
:103480008BBFC8E4D2E08BE48983A1E8B2E0119657
:103490008C931197E4E5F2E081838AE588838C932D
:1034A0008083DF91CF910895EE0FFF1F0590F49177
:1034B000E02D0994FB01DC0104C08D91019080197D
:1034C00021F441505040C8F7881B990B0895E199A9
:1034D000FECF9FBB8EBBE09A99278DB30895A8E1DC
:1034E000B0E042E050E00C949A1A262FE199FECF0A
:1034F0009FBB8EBBE09A01970DB2021631F02DBB37
:103500000FB6F894E29AE19A0FBE08950396272F1A
:103510000E94761A0E94751A252F0E94761A242F6F
:103520000C94761A0196272F0E94761A0C94751A1D
:10353000DC01CB01FC01E199FECF06C0FFBBEEBB75
:10354000E09A31960DB20D9241505040B8F708956F
:04355000F894FFCF1D
:10355400C8005F01D51730180218FE17FA17D817DC
:10356400FF5AE200E900EA00B500B600B700CD005A
:103574008301CC008A0192019401210223022402D6
:103584002502260227022A02B300B4006F0070004D
:10359400818283E200E900EA00B500B600B700CDFD
:1035A400008301CC008A01920194012102230224A8
:1035B400022502260227022A02B300B4006F00701B
:1035C4000081828301050607303132339695949346
:0835D4009291903435363797CF
:00000001FF
